{
  "_format": "hh-sol-artifact-1",
  "contractName": "FiredGuys",
  "sourceName": "contracts/FiredGuys.sol",
  "abi": [
    {
      "inputs": [],
      "stateMutability": "nonpayable",
      "type": "constructor"
    },
    {
      "anonymous": false,
      "inputs": [
        {
          "indexed": true,
          "internalType": "address",
          "name": "owner",
          "type": "address"
        },
        {
          "indexed": true,
          "internalType": "address",
          "name": "approved",
          "type": "address"
        },
        {
          "indexed": true,
          "internalType": "uint256",
          "name": "tokenId",
          "type": "uint256"
        }
      ],
      "name": "Approval",
      "type": "event"
    },
    {
      "anonymous": false,
      "inputs": [
        {
          "indexed": true,
          "internalType": "address",
          "name": "owner",
          "type": "address"
        },
        {
          "indexed": true,
          "internalType": "address",
          "name": "operator",
          "type": "address"
        },
        {
          "indexed": false,
          "internalType": "bool",
          "name": "approved",
          "type": "bool"
        }
      ],
      "name": "ApprovalForAll",
      "type": "event"
    },
    {
      "anonymous": false,
      "inputs": [
        {
          "indexed": true,
          "internalType": "address",
          "name": "from",
          "type": "address"
        },
        {
          "indexed": true,
          "internalType": "address",
          "name": "to",
          "type": "address"
        },
        {
          "indexed": true,
          "internalType": "uint256",
          "name": "tokenId",
          "type": "uint256"
        }
      ],
      "name": "Transfer",
      "type": "event"
    },
    {
      "inputs": [
        {
          "internalType": "address",
          "name": "to",
          "type": "address"
        },
        {
          "internalType": "uint256",
          "name": "tokenId",
          "type": "uint256"
        }
      ],
      "name": "approve",
      "outputs": [],
      "stateMutability": "nonpayable",
      "type": "function"
    },
    {
      "inputs": [
        {
          "internalType": "address",
          "name": "owner",
          "type": "address"
        }
      ],
      "name": "balanceOf",
      "outputs": [
        {
          "internalType": "uint256",
          "name": "",
          "type": "uint256"
        }
      ],
      "stateMutability": "view",
      "type": "function"
    },
    {
      "inputs": [
        {
          "internalType": "uint256",
          "name": "tokenId",
          "type": "uint256"
        }
      ],
      "name": "getApproved",
      "outputs": [
        {
          "internalType": "address",
          "name": "",
          "type": "address"
        }
      ],
      "stateMutability": "view",
      "type": "function"
    },
    {
      "inputs": [
        {
          "internalType": "address",
          "name": "owner",
          "type": "address"
        },
        {
          "internalType": "address",
          "name": "operator",
          "type": "address"
        }
      ],
      "name": "isApprovedForAll",
      "outputs": [
        {
          "internalType": "bool",
          "name": "",
          "type": "bool"
        }
      ],
      "stateMutability": "view",
      "type": "function"
    },
    {
      "inputs": [
        {
          "internalType": "string",
          "name": "_uri",
          "type": "string"
        }
      ],
      "name": "mint",
      "outputs": [],
      "stateMutability": "payable",
      "type": "function"
    },
    {
      "inputs": [],
      "name": "mintPrice",
      "outputs": [
        {
          "internalType": "uint256",
          "name": "",
          "type": "uint256"
        }
      ],
      "stateMutability": "view",
      "type": "function"
    },
    {
      "inputs": [],
      "name": "name",
      "outputs": [
        {
          "internalType": "string",
          "name": "",
          "type": "string"
        }
      ],
      "stateMutability": "view",
      "type": "function"
    },
    {
      "inputs": [
        {
          "internalType": "uint256",
          "name": "tokenId",
          "type": "uint256"
        }
      ],
      "name": "ownerOf",
      "outputs": [
        {
          "internalType": "address",
          "name": "",
          "type": "address"
        }
      ],
      "stateMutability": "view",
      "type": "function"
    },
    {
      "inputs": [
        {
          "internalType": "address",
          "name": "from",
          "type": "address"
        },
        {
          "internalType": "address",
          "name": "to",
          "type": "address"
        },
        {
          "internalType": "uint256",
          "name": "tokenId",
          "type": "uint256"
        }
      ],
      "name": "safeTransferFrom",
      "outputs": [],
      "stateMutability": "nonpayable",
      "type": "function"
    },
    {
      "inputs": [
        {
          "internalType": "address",
          "name": "from",
          "type": "address"
        },
        {
          "internalType": "address",
          "name": "to",
          "type": "address"
        },
        {
          "internalType": "uint256",
          "name": "tokenId",
          "type": "uint256"
        },
        {
          "internalType": "bytes",
          "name": "_data",
          "type": "bytes"
        }
      ],
      "name": "safeTransferFrom",
      "outputs": [],
      "stateMutability": "nonpayable",
      "type": "function"
    },
    {
      "inputs": [
        {
          "internalType": "address",
          "name": "operator",
          "type": "address"
        },
        {
          "internalType": "bool",
          "name": "approved",
          "type": "bool"
        }
      ],
      "name": "setApprovalForAll",
      "outputs": [],
      "stateMutability": "nonpayable",
      "type": "function"
    },
    {
      "inputs": [
        {
          "internalType": "bytes4",
          "name": "interfaceId",
          "type": "bytes4"
        }
      ],
      "name": "supportsInterface",
      "outputs": [
        {
          "internalType": "bool",
          "name": "",
          "type": "bool"
        }
      ],
      "stateMutability": "view",
      "type": "function"
    },
    {
      "inputs": [],
      "name": "symbol",
      "outputs": [
        {
          "internalType": "string",
          "name": "",
          "type": "string"
        }
      ],
      "stateMutability": "view",
      "type": "function"
    },
    {
      "inputs": [
        {
          "internalType": "uint256",
          "name": "index",
          "type": "uint256"
        }
      ],
      "name": "tokenByIndex",
      "outputs": [
        {
          "internalType": "uint256",
          "name": "",
          "type": "uint256"
        }
      ],
      "stateMutability": "view",
      "type": "function"
    },
    {
      "inputs": [
        {
          "internalType": "address",
          "name": "owner",
          "type": "address"
        },
        {
          "internalType": "uint256",
          "name": "index",
          "type": "uint256"
        }
      ],
      "name": "tokenOfOwnerByIndex",
      "outputs": [
        {
          "internalType": "uint256",
          "name": "",
          "type": "uint256"
        }
      ],
      "stateMutability": "view",
      "type": "function"
    },
    {
      "inputs": [
        {
          "internalType": "uint256",
          "name": "tokenId",
          "type": "uint256"
        }
      ],
      "name": "tokenURI",
      "outputs": [
        {
          "internalType": "string",
          "name": "",
          "type": "string"
        }
      ],
      "stateMutability": "view",
      "type": "function"
    },
    {
      "inputs": [],
      "name": "totalSupply",
      "outputs": [
        {
          "internalType": "uint256",
          "name": "",
          "type": "uint256"
        }
      ],
      "stateMutability": "view",
      "type": "function"
    },
    {
      "inputs": [
        {
          "internalType": "address",
          "name": "from",
          "type": "address"
        },
        {
          "internalType": "address",
          "name": "to",
          "type": "address"
        },
        {
          "internalType": "uint256",
          "name": "tokenId",
          "type": "uint256"
        }
      ],
      "name": "transferFrom",
      "outputs": [],
      "stateMutability": "nonpayable",
      "type": "function"
    }
  ],
  "bytecode": "0x60806040523480156200001157600080fd5b506040518060400160405280600981526020017f46697265644775797300000000000000000000000000000000000000000000008152506040518060400160405280600381526020017f4644470000000000000000000000000000000000000000000000000000000000815250816000908051906020019062000096929190620000b8565b508060019080519060200190620000af929190620000b8565b505050620001cd565b828054620000c69062000168565b90600052602060002090601f016020900481019282620000ea576000855562000136565b82601f106200010557805160ff191683800117855562000136565b8280016001018555821562000136579182015b828111156200013557825182559160200191906001019062000118565b5b50905062000145919062000149565b5090565b5b80821115620001645760008160009055506001016200014a565b5090565b600060028204905060018216806200018157607f821691505b602082108114156200019857620001976200019e565b5b50919050565b7f4e487b7100000000000000000000000000000000000000000000000000000000600052602260045260246000fd5b6134f880620001dd6000396000f3fe6080604052600436106101095760003560e01c80636352211e11610095578063a22cb46511610064578063a22cb465146103a3578063b88d4fde146103cc578063c87b56dd146103f5578063d85d3d2714610432578063e985e9c51461044e57610109565b80636352211e146102d35780636817c76c1461031057806370a082311461033b57806395d89b411461037857610109565b806318160ddd116100dc57806318160ddd146101dc57806323b872dd146102075780632f745c591461023057806342842e0e1461026d5780634f6ccce71461029657610109565b806301ffc9a71461010e57806306fdde031461014b578063081812fc14610176578063095ea7b3146101b3575b600080fd5b34801561011a57600080fd5b5061013560048036038101906101309190612440565b61048b565b60405161014291906128cd565b60405180910390f35b34801561015757600080fd5b5061016061049d565b60405161016d91906128e8565b60405180910390f35b34801561018257600080fd5b5061019d600480360381019061019891906124d3565b61052f565b6040516101aa9190612866565b60405180910390f35b3480156101bf57600080fd5b506101da60048036038101906101d59190612404565b6105b4565b005b3480156101e857600080fd5b506101f16106cc565b6040516101fe9190612b4a565b60405180910390f35b34801561021357600080fd5b5061022e600480360381019061022991906122fe565b6106d9565b005b34801561023c57600080fd5b5061025760048036038101906102529190612404565b610739565b6040516102649190612b4a565b60405180910390f35b34801561027957600080fd5b50610294600480360381019061028f91906122fe565b6107de565b005b3480156102a257600080fd5b506102bd60048036038101906102b891906124d3565b6107fe565b6040516102ca9190612b4a565b60405180910390f35b3480156102df57600080fd5b506102fa60048036038101906102f591906124d3565b610895565b6040516103079190612866565b60405180910390f35b34801561031c57600080fd5b50610325610947565b6040516103329190612b4a565b60405180910390f35b34801561034757600080fd5b50610362600480360381019061035d9190612299565b61094c565b60405161036f9190612b4a565b60405180910390f35b34801561038457600080fd5b5061038d610a04565b60405161039a91906128e8565b60405180910390f35b3480156103af57600080fd5b506103ca60048036038101906103c591906123c8565b610a96565b005b3480156103d857600080fd5b506103f360048036038101906103ee919061234d565b610aac565b005b34801561040157600080fd5b5061041c600480360381019061041791906124d3565b610b0e565b60405161042991906128e8565b60405180910390f35b61044c60048036038101906104479190612492565b610b20565b005b34801561045a57600080fd5b50610475600480360381019061047091906122c2565b610b44565b60405161048291906128cd565b60405180910390f35b600061049682610bd8565b9050919050565b6060600080546104ac90612da0565b80601f01602080910402602001604051908101604052809291908181526020018280546104d890612da0565b80156105255780601f106104fa57610100808354040283529160200191610525565b820191906000526020600020905b81548152906001019060200180831161050857829003601f168201915b5050505050905090565b600061053a82610c52565b610579576040517f08c379a000000000000000000000000000000000000000000000000000000000815260040161057090612aaa565b60405180910390fd5b6004600083815260200190815260200160002060009054906101000a900473ffffffffffffffffffffffffffffffffffffffff169050919050565b60006105bf82610895565b90508073ffffffffffffffffffffffffffffffffffffffff168373ffffffffffffffffffffffffffffffffffffffff161415610630576040517f08c379a000000000000000000000000000000000000000000000000000000000815260040161062790612aea565b60405180910390fd5b8073ffffffffffffffffffffffffffffffffffffffff1661064f610cbe565b73ffffffffffffffffffffffffffffffffffffffff16148061067e575061067d81610678610cbe565b610b44565b5b6106bd576040517f08c379a00000000000000000000000000000000000000000000000000000000081526004016106b4906129ea565b60405180910390fd5b6106c78383610cc6565b505050565b6000600880549050905090565b6106ea6106e4610cbe565b82610d7f565b610729576040517f08c379a000000000000000000000000000000000000000000000000000000000815260040161072090612b0a565b60405180910390fd5b610734838383610e5d565b505050565b60006107448361094c565b8210610785576040517f08c379a000000000000000000000000000000000000000000000000000000000815260040161077c9061290a565b60405180910390fd5b600660008473ffffffffffffffffffffffffffffffffffffffff1673ffffffffffffffffffffffffffffffffffffffff168152602001908152602001600020600083815260200190815260200160002054905092915050565b6107f983838360405180602001604052806000815250610aac565b505050565b60006108086106cc565b8210610849576040517f08c379a000000000000000000000000000000000000000000000000000000000815260040161084090612b2a565b60405180910390fd5b60088281548110610883577f4e487b7100000000000000000000000000000000000000000000000000000000600052603260045260246000fd5b90600052602060002001549050919050565b6000806002600084815260200190815260200160002060009054906101000a900473ffffffffffffffffffffffffffffffffffffffff169050600073ffffffffffffffffffffffffffffffffffffffff168173ffffffffffffffffffffffffffffffffffffffff16141561093e576040517f08c379a000000000000000000000000000000000000000000000000000000000815260040161093590612a2a565b60405180910390fd5b80915050919050565b600181565b60008073ffffffffffffffffffffffffffffffffffffffff168273ffffffffffffffffffffffffffffffffffffffff1614156109bd576040517f08c379a00000000000000000000000000000000000000000000000000000000081526004016109b490612a0a565b60405180910390fd5b600360008373ffffffffffffffffffffffffffffffffffffffff1673ffffffffffffffffffffffffffffffffffffffff168152602001908152602001600020549050919050565b606060018054610a1390612da0565b80601f0160208091040260200160405190810160405280929190818152602001828054610a3f90612da0565b8015610a8c5780601f10610a6157610100808354040283529160200191610a8c565b820191906000526020600020905b815481529060010190602001808311610a6f57829003601f168201915b5050505050905090565b610aa8610aa1610cbe565b83836110c4565b5050565b610abd610ab7610cbe565b83610d7f565b610afc576040517f08c379a0000000000000000000000000000000000000000000000000000000008152600401610af390612b0a565b60405180910390fd5b610b0884848484611231565b50505050565b6060610b198261128d565b9050919050565b6000610b2a6106cc565b9050610b3633826113df565b610b4081836113fd565b5050565b6000600560008473ffffffffffffffffffffffffffffffffffffffff1673ffffffffffffffffffffffffffffffffffffffff16815260200190815260200160002060008373ffffffffffffffffffffffffffffffffffffffff1673ffffffffffffffffffffffffffffffffffffffff16815260200190815260200160002060009054906101000a900460ff16905092915050565b60007f780e9d63000000000000000000000000000000000000000000000000000000007bffffffffffffffffffffffffffffffffffffffffffffffffffffffff1916827bffffffffffffffffffffffffffffffffffffffffffffffffffffffff19161480610c4b5750610c4a82611471565b5b9050919050565b60008073ffffffffffffffffffffffffffffffffffffffff166002600084815260200190815260200160002060009054906101000a900473ffffffffffffffffffffffffffffffffffffffff1673ffffffffffffffffffffffffffffffffffffffff1614159050919050565b600033905090565b816004600083815260200190815260200160002060006101000a81548173ffffffffffffffffffffffffffffffffffffffff021916908373ffffffffffffffffffffffffffffffffffffffff160217905550808273ffffffffffffffffffffffffffffffffffffffff16610d3983610895565b73ffffffffffffffffffffffffffffffffffffffff167f8c5be1e5ebec7d5bd14f71427d1e84f3dd0314c0f7b2291e5b200ac8c7c3b92560405160405180910390a45050565b6000610d8a82610c52565b610dc9576040517f08c379a0000000000000000000000000000000000000000000000000000000008152600401610dc0906129ca565b60405180910390fd5b6000610dd483610895565b90508073ffffffffffffffffffffffffffffffffffffffff168473ffffffffffffffffffffffffffffffffffffffff161480610e165750610e158185610b44565b5b80610e5457508373ffffffffffffffffffffffffffffffffffffffff16610e3c8461052f565b73ffffffffffffffffffffffffffffffffffffffff16145b91505092915050565b8273ffffffffffffffffffffffffffffffffffffffff16610e7d82610895565b73ffffffffffffffffffffffffffffffffffffffff1614610ed3576040517f08c379a0000000000000000000000000000000000000000000000000000000008152600401610eca9061294a565b60405180910390fd5b600073ffffffffffffffffffffffffffffffffffffffff168273ffffffffffffffffffffffffffffffffffffffff161415610f43576040517f08c379a0000000000000000000000000000000000000000000000000000000008152600401610f3a9061298a565b60405180910390fd5b610f4e838383611553565b610f59600082610cc6565b6001600360008573ffffffffffffffffffffffffffffffffffffffff1673ffffffffffffffffffffffffffffffffffffffff1681526020019081526020016000206000828254610fa99190612cb6565b925050819055506001600360008473ffffffffffffffffffffffffffffffffffffffff1673ffffffffffffffffffffffffffffffffffffffff16815260200190815260200160002060008282546110009190612c2f565b92505081905550816002600083815260200190815260200160002060006101000a81548173ffffffffffffffffffffffffffffffffffffffff021916908373ffffffffffffffffffffffffffffffffffffffff160217905550808273ffffffffffffffffffffffffffffffffffffffff168473ffffffffffffffffffffffffffffffffffffffff167fddf252ad1be2c89b69c2b068fc378daa952ba7f163c4a11628f55a4df523b3ef60405160405180910390a46110bf838383611563565b505050565b8173ffffffffffffffffffffffffffffffffffffffff168373ffffffffffffffffffffffffffffffffffffffff161415611133576040517f08c379a000000000000000000000000000000000000000000000000000000000815260040161112a906129aa565b60405180910390fd5b80600560008573ffffffffffffffffffffffffffffffffffffffff1673ffffffffffffffffffffffffffffffffffffffff16815260200190815260200160002060008473ffffffffffffffffffffffffffffffffffffffff1673ffffffffffffffffffffffffffffffffffffffff16815260200190815260200160002060006101000a81548160ff0219169083151502179055508173ffffffffffffffffffffffffffffffffffffffff168373ffffffffffffffffffffffffffffffffffffffff167f17307eab39ab6107e8899845ad3d59bd9653f200f220920489ca2b5937696c318360405161122491906128cd565b60405180910390a3505050565b61123c848484610e5d565b61124884848484611568565b611287576040517f08c379a000000000000000000000000000000000000000000000000000000000815260040161127e9061292a565b60405180910390fd5b50505050565b606061129882610c52565b6112d7576040517f08c379a00000000000000000000000000000000000000000000000000000000081526004016112ce90612a8a565b60405180910390fd5b6000600a600084815260200190815260200160002080546112f790612da0565b80601f016020809104026020016040519081016040528092919081815260200182805461132390612da0565b80156113705780601f1061134557610100808354040283529160200191611370565b820191906000526020600020905b81548152906001019060200180831161135357829003601f168201915b5050505050905060006113816116ff565b90506000815114156113975781925050506113da565b6000825111156113cc5780826040516020016113b4929190612842565b604051602081830303815290604052925050506113da565b6113d584611716565b925050505b919050565b6113f98282604051806020016040528060008152506117bd565b5050565b61140682610c52565b611445576040517f08c379a000000000000000000000000000000000000000000000000000000000815260040161143c90612a4a565b60405180910390fd5b80600a6000848152602001908152602001600020908051906020019061146c9291906120bd565b505050565b60007f80ac58cd000000000000000000000000000000000000000000000000000000007bffffffffffffffffffffffffffffffffffffffffffffffffffffffff1916827bffffffffffffffffffffffffffffffffffffffffffffffffffffffff1916148061153c57507f5b5e139f000000000000000000000000000000000000000000000000000000007bffffffffffffffffffffffffffffffffffffffffffffffffffffffff1916827bffffffffffffffffffffffffffffffffffffffffffffffffffffffff1916145b8061154c575061154b82611818565b5b9050919050565b61155e838383611882565b505050565b505050565b60006115898473ffffffffffffffffffffffffffffffffffffffff16611996565b156116f2578373ffffffffffffffffffffffffffffffffffffffff1663150b7a026115b2610cbe565b8786866040518563ffffffff1660e01b81526004016115d49493929190612881565b602060405180830381600087803b1580156115ee57600080fd5b505af192505050801561161f57506040513d601f19601f8201168201806040525081019061161c9190612469565b60015b6116a2573d806000811461164f576040519150601f19603f3d011682016040523d82523d6000602084013e611654565b606091505b5060008151141561169a576040517f08c379a00000000000000000000000000000000000000000000000000000000081526004016116919061292a565b60405180910390fd5b805181602001fd5b63150b7a0260e01b7bffffffffffffffffffffffffffffffffffffffffffffffffffffffff1916817bffffffffffffffffffffffffffffffffffffffffffffffffffffffff1916149150506116f7565b600190505b949350505050565b606060405180602001604052806000815250905090565b606061172182610c52565b611760576040517f08c379a000000000000000000000000000000000000000000000000000000000815260040161175790612aca565b60405180910390fd5b600061176a6116ff565b9050600081511161178a57604051806020016040528060008152506117b5565b80611794846119b9565b6040516020016117a5929190612842565b6040516020818303038152906040525b915050919050565b6117c78383611b66565b6117d46000848484611568565b611813576040517f08c379a000000000000000000000000000000000000000000000000000000000815260040161180a9061292a565b60405180910390fd5b505050565b60007f01ffc9a7000000000000000000000000000000000000000000000000000000007bffffffffffffffffffffffffffffffffffffffffffffffffffffffff1916827bffffffffffffffffffffffffffffffffffffffffffffffffffffffff1916149050919050565b61188d838383611d40565b600073ffffffffffffffffffffffffffffffffffffffff168373ffffffffffffffffffffffffffffffffffffffff1614156118d0576118cb81611d45565b61190f565b8173ffffffffffffffffffffffffffffffffffffffff168373ffffffffffffffffffffffffffffffffffffffff161461190e5761190d8382611d8e565b5b5b600073ffffffffffffffffffffffffffffffffffffffff168273ffffffffffffffffffffffffffffffffffffffff1614156119525761194d81611efb565b611991565b8273ffffffffffffffffffffffffffffffffffffffff168273ffffffffffffffffffffffffffffffffffffffff16146119905761198f828261203e565b5b5b505050565b6000808273ffffffffffffffffffffffffffffffffffffffff163b119050919050565b60606000821415611a01576040518060400160405280600181526020017f30000000000000000000000000000000000000000000000000000000000000008152509050611b61565b600082905060005b60008214611a33578080611a1c90612e03565b915050600a82611a2c9190612c85565b9150611a09565b60008167ffffffffffffffff811115611a75577f4e487b7100000000000000000000000000000000000000000000000000000000600052604160045260246000fd5b6040519080825280601f01601f191660200182016040528015611aa75781602001600182028036833780820191505090505b5090505b60008514611b5a57600182611ac09190612cb6565b9150600a85611acf9190612e4c565b6030611adb9190612c2f565b60f81b818381518110611b17577f4e487b7100000000000000000000000000000000000000000000000000000000600052603260045260246000fd5b60200101907effffffffffffffffffffffffffffffffffffffffffffffffffffffffffffff1916908160001a905350600a85611b539190612c85565b9450611aab565b8093505050505b919050565b600073ffffffffffffffffffffffffffffffffffffffff168273ffffffffffffffffffffffffffffffffffffffff161415611bd6576040517f08c379a0000000000000000000000000000000000000000000000000000000008152600401611bcd90612a6a565b60405180910390fd5b611bdf81610c52565b15611c1f576040517f08c379a0000000000000000000000000000000000000000000000000000000008152600401611c169061296a565b60405180910390fd5b611c2b60008383611553565b6001600360008473ffffffffffffffffffffffffffffffffffffffff1673ffffffffffffffffffffffffffffffffffffffff1681526020019081526020016000206000828254611c7b9190612c2f565b92505081905550816002600083815260200190815260200160002060006101000a81548173ffffffffffffffffffffffffffffffffffffffff021916908373ffffffffffffffffffffffffffffffffffffffff160217905550808273ffffffffffffffffffffffffffffffffffffffff16600073ffffffffffffffffffffffffffffffffffffffff167fddf252ad1be2c89b69c2b068fc378daa952ba7f163c4a11628f55a4df523b3ef60405160405180910390a4611d3c60008383611563565b5050565b505050565b6008805490506009600083815260200190815260200160002081905550600881908060018154018082558091505060019003906000526020600020016000909190919091505550565b60006001611d9b8461094c565b611da59190612cb6565b9050600060076000848152602001908152602001600020549050818114611e8a576000600660008673ffffffffffffffffffffffffffffffffffffffff1673ffffffffffffffffffffffffffffffffffffffff168152602001908152602001600020600084815260200190815260200160002054905080600660008773ffffffffffffffffffffffffffffffffffffffff1673ffffffffffffffffffffffffffffffffffffffff168152602001908152602001600020600084815260200190815260200160002081905550816007600083815260200190815260200160002081905550505b6007600084815260200190815260200160002060009055600660008573ffffffffffffffffffffffffffffffffffffffff1673ffffffffffffffffffffffffffffffffffffffff16815260200190815260200160002060008381526020019081526020016000206000905550505050565b60006001600880549050611f0f9190612cb6565b9050600060096000848152602001908152602001600020549050600060088381548110611f65577f4e487b7100000000000000000000000000000000000000000000000000000000600052603260045260246000fd5b906000526020600020015490508060088381548110611fad577f4e487b7100000000000000000000000000000000000000000000000000000000600052603260045260246000fd5b906000526020600020018190555081600960008381526020019081526020016000208190555060096000858152602001908152602001600020600090556008805480612022577f4e487b7100000000000000000000000000000000000000000000000000000000600052603160045260246000fd5b6001900381819060005260206000200160009055905550505050565b60006120498361094c565b905081600660008573ffffffffffffffffffffffffffffffffffffffff1673ffffffffffffffffffffffffffffffffffffffff168152602001908152602001600020600083815260200190815260200160002081905550806007600084815260200190815260200160002081905550505050565b8280546120c990612da0565b90600052602060002090601f0160209004810192826120eb5760008555612132565b82601f1061210457805160ff1916838001178555612132565b82800160010185558215612132579182015b82811115612131578251825591602001919060010190612116565b5b50905061213f9190612143565b5090565b5b8082111561215c576000816000905550600101612144565b5090565b600061217361216e84612b8a565b612b65565b90508281526020810184848401111561218b57600080fd5b612196848285612d5e565b509392505050565b60006121b16121ac84612bbb565b612b65565b9050828152602081018484840111156121c957600080fd5b6121d4848285612d5e565b509392505050565b6000813590506121eb81613466565b92915050565b6000813590506122008161347d565b92915050565b60008135905061221581613494565b92915050565b60008151905061222a81613494565b92915050565b600082601f83011261224157600080fd5b8135612251848260208601612160565b91505092915050565b600082601f83011261226b57600080fd5b813561227b84826020860161219e565b91505092915050565b600081359050612293816134ab565b92915050565b6000602082840312156122ab57600080fd5b60006122b9848285016121dc565b91505092915050565b600080604083850312156122d557600080fd5b60006122e3858286016121dc565b92505060206122f4858286016121dc565b9150509250929050565b60008060006060848603121561231357600080fd5b6000612321868287016121dc565b9350506020612332868287016121dc565b925050604061234386828701612284565b9150509250925092565b6000806000806080858703121561236357600080fd5b6000612371878288016121dc565b9450506020612382878288016121dc565b935050604061239387828801612284565b925050606085013567ffffffffffffffff8111156123b057600080fd5b6123bc87828801612230565b91505092959194509250565b600080604083850312156123db57600080fd5b60006123e9858286016121dc565b92505060206123fa858286016121f1565b9150509250929050565b6000806040838503121561241757600080fd5b6000612425858286016121dc565b925050602061243685828601612284565b9150509250929050565b60006020828403121561245257600080fd5b600061246084828501612206565b91505092915050565b60006020828403121561247b57600080fd5b60006124898482850161221b565b91505092915050565b6000602082840312156124a457600080fd5b600082013567ffffffffffffffff8111156124be57600080fd5b6124ca8482850161225a565b91505092915050565b6000602082840312156124e557600080fd5b60006124f384828501612284565b91505092915050565b61250581612cea565b82525050565b61251481612cfc565b82525050565b600061252582612bec565b61252f8185612c02565b935061253f818560208601612d6d565b61254881612f39565b840191505092915050565b600061255e82612bf7565b6125688185612c13565b9350612578818560208601612d6d565b61258181612f39565b840191505092915050565b600061259782612bf7565b6125a18185612c24565b93506125b1818560208601612d6d565b80840191505092915050565b60006125ca602b83612c13565b91506125d582612f4a565b604082019050919050565b60006125ed603283612c13565b91506125f882612f99565b604082019050919050565b6000612610602583612c13565b915061261b82612fe8565b604082019050919050565b6000612633601c83612c13565b915061263e82613037565b602082019050919050565b6000612656602483612c13565b915061266182613060565b604082019050919050565b6000612679601983612c13565b9150612684826130af565b602082019050919050565b600061269c602c83612c13565b91506126a7826130d8565b604082019050919050565b60006126bf603883612c13565b91506126ca82613127565b604082019050919050565b60006126e2602a83612c13565b91506126ed82613176565b604082019050919050565b6000612705602983612c13565b9150612710826131c5565b604082019050919050565b6000612728602e83612c13565b915061273382613214565b604082019050919050565b600061274b602083612c13565b915061275682613263565b602082019050919050565b600061276e603183612c13565b91506127798261328c565b604082019050919050565b6000612791602c83612c13565b915061279c826132db565b604082019050919050565b60006127b4602f83612c13565b91506127bf8261332a565b604082019050919050565b60006127d7602183612c13565b91506127e282613379565b604082019050919050565b60006127fa603183612c13565b9150612805826133c8565b604082019050919050565b600061281d602c83612c13565b915061282882613417565b604082019050919050565b61283c81612d54565b82525050565b600061284e828561258c565b915061285a828461258c565b91508190509392505050565b600060208201905061287b60008301846124fc565b92915050565b600060808201905061289660008301876124fc565b6128a360208301866124fc565b6128b06040830185612833565b81810360608301526128c2818461251a565b905095945050505050565b60006020820190506128e2600083018461250b565b92915050565b600060208201905081810360008301526129028184612553565b905092915050565b60006020820190508181036000830152612923816125bd565b9050919050565b60006020820190508181036000830152612943816125e0565b9050919050565b6000602082019050818103600083015261296381612603565b9050919050565b6000602082019050818103600083015261298381612626565b9050919050565b600060208201905081810360008301526129a381612649565b9050919050565b600060208201905081810360008301526129c38161266c565b9050919050565b600060208201905081810360008301526129e38161268f565b9050919050565b60006020820190508181036000830152612a03816126b2565b9050919050565b60006020820190508181036000830152612a23816126d5565b9050919050565b60006020820190508181036000830152612a43816126f8565b9050919050565b60006020820190508181036000830152612a638161271b565b9050919050565b60006020820190508181036000830152612a838161273e565b9050919050565b60006020820190508181036000830152612aa381612761565b9050919050565b60006020820190508181036000830152612ac381612784565b9050919050565b60006020820190508181036000830152612ae3816127a7565b9050919050565b60006020820190508181036000830152612b03816127ca565b9050919050565b60006020820190508181036000830152612b23816127ed565b9050919050565b60006020820190508181036000830152612b4381612810565b9050919050565b6000602082019050612b5f6000830184612833565b92915050565b6000612b6f612b80565b9050612b7b8282612dd2565b919050565b6000604051905090565b600067ffffffffffffffff821115612ba557612ba4612f0a565b5b612bae82612f39565b9050602081019050919050565b600067ffffffffffffffff821115612bd657612bd5612f0a565b5b612bdf82612f39565b9050602081019050919050565b600081519050919050565b600081519050919050565b600082825260208201905092915050565b600082825260208201905092915050565b600081905092915050565b6000612c3a82612d54565b9150612c4583612d54565b9250827fffffffffffffffffffffffffffffffffffffffffffffffffffffffffffffffff03821115612c7a57612c79612e7d565b5b828201905092915050565b6000612c9082612d54565b9150612c9b83612d54565b925082612cab57612caa612eac565b5b828204905092915050565b6000612cc182612d54565b9150612ccc83612d54565b925082821015612cdf57612cde612e7d565b5b828203905092915050565b6000612cf582612d34565b9050919050565b60008115159050919050565b60007fffffffff0000000000000000000000000000000000000000000000000000000082169050919050565b600073ffffffffffffffffffffffffffffffffffffffff82169050919050565b6000819050919050565b82818337600083830152505050565b60005b83811015612d8b578082015181840152602081019050612d70565b83811115612d9a576000848401525b50505050565b60006002820490506001821680612db857607f821691505b60208210811415612dcc57612dcb612edb565b5b50919050565b612ddb82612f39565b810181811067ffffffffffffffff82111715612dfa57612df9612f0a565b5b80604052505050565b6000612e0e82612d54565b91507fffffffffffffffffffffffffffffffffffffffffffffffffffffffffffffffff821415612e4157612e40612e7d565b5b600182019050919050565b6000612e5782612d54565b9150612e6283612d54565b925082612e7257612e71612eac565b5b828206905092915050565b7f4e487b7100000000000000000000000000000000000000000000000000000000600052601160045260246000fd5b7f4e487b7100000000000000000000000000000000000000000000000000000000600052601260045260246000fd5b7f4e487b7100000000000000000000000000000000000000000000000000000000600052602260045260246000fd5b7f4e487b7100000000000000000000000000000000000000000000000000000000600052604160045260246000fd5b6000601f19601f8301169050919050565b7f455243373231456e756d657261626c653a206f776e657220696e646578206f7560008201527f74206f6620626f756e6473000000000000000000000000000000000000000000602082015250565b7f4552433732313a207472616e7366657220746f206e6f6e20455243373231526560008201527f63656976657220696d706c656d656e7465720000000000000000000000000000602082015250565b7f4552433732313a207472616e736665722066726f6d20696e636f72726563742060008201527f6f776e6572000000000000000000000000000000000000000000000000000000602082015250565b7f4552433732313a20746f6b656e20616c7265616479206d696e74656400000000600082015250565b7f4552433732313a207472616e7366657220746f20746865207a65726f2061646460008201527f7265737300000000000000000000000000000000000000000000000000000000602082015250565b7f4552433732313a20617070726f766520746f2063616c6c657200000000000000600082015250565b7f4552433732313a206f70657261746f7220717565727920666f72206e6f6e657860008201527f697374656e7420746f6b656e0000000000000000000000000000000000000000602082015250565b7f4552433732313a20617070726f76652063616c6c6572206973206e6f74206f7760008201527f6e6572206e6f7220617070726f76656420666f7220616c6c0000000000000000602082015250565b7f4552433732313a2062616c616e636520717565727920666f7220746865207a6560008201527f726f206164647265737300000000000000000000000000000000000000000000602082015250565b7f4552433732313a206f776e657220717565727920666f72206e6f6e657869737460008201527f656e7420746f6b656e0000000000000000000000000000000000000000000000602082015250565b7f45524337323155524953746f726167653a2055524920736574206f66206e6f6e60008201527f6578697374656e7420746f6b656e000000000000000000000000000000000000602082015250565b7f4552433732313a206d696e7420746f20746865207a65726f2061646472657373600082015250565b7f45524337323155524953746f726167653a2055524920717565727920666f722060008201527f6e6f6e6578697374656e7420746f6b656e000000000000000000000000000000602082015250565b7f4552433732313a20617070726f76656420717565727920666f72206e6f6e657860008201527f697374656e7420746f6b656e0000000000000000000000000000000000000000602082015250565b7f4552433732314d657461646174613a2055524920717565727920666f72206e6f60008201527f6e6578697374656e7420746f6b656e0000000000000000000000000000000000602082015250565b7f4552433732313a20617070726f76616c20746f2063757272656e74206f776e6560008201527f7200000000000000000000000000000000000000000000000000000000000000602082015250565b7f4552433732313a207472616e736665722063616c6c6572206973206e6f74206f60008201527f776e6572206e6f7220617070726f766564000000000000000000000000000000602082015250565b7f455243373231456e756d657261626c653a20676c6f62616c20696e646578206f60008201527f7574206f6620626f756e64730000000000000000000000000000000000000000602082015250565b61346f81612cea565b811461347a57600080fd5b50565b61348681612cfc565b811461349157600080fd5b50565b61349d81612d08565b81146134a857600080fd5b50565b6134b481612d54565b81146134bf57600080fd5b5056fea2646970667358221220c476140769d4ed0c90e076898cee796260b74e5fae6a89f28485d35053f9aff564736f6c63430008040033",
  "linkReferences": {},
  "deployedLinkReferences": {}
}